{
  "_format": "hh-sol-artifact-1",
  "contractName": "CheckInPortal",
  "sourceName": "contracts/CheckInPortal.sol",
  "abi": [
    {
      "inputs": [],
      "stateMutability": "payable",
      "type": "constructor"
    },
    {
      "anonymous": false,
      "inputs": [
        {
          "indexed": true,
          "internalType": "address",
          "name": "from",
          "type": "address"
        },
        {
          "indexed": false,
          "internalType": "uint256",
          "name": "timestamp",
          "type": "uint256"
        }
      ],
      "name": "NewCheckIn",
      "type": "event"
    },
    {
      "inputs": [],
      "name": "checkIn",
      "outputs": [],
      "stateMutability": "nonpayable",
      "type": "function"
    },
    {
      "inputs": [],
      "name": "getCheckInsList",
      "outputs": [
        {
          "components": [
            {
              "internalType": "address",
              "name": "person",
              "type": "address"
            },
            {
              "internalType": "uint256",
              "name": "timestamp",
              "type": "uint256"
            }
          ],
          "internalType": "struct CheckInPortal.CheckIn[]",
          "name": "",
          "type": "tuple[]"
        }
      ],
      "stateMutability": "view",
      "type": "function"
    },
    {
      "inputs": [],
      "name": "getTotalCheckIns",
      "outputs": [
        {
          "internalType": "uint256",
          "name": "",
          "type": "uint256"
        }
      ],
      "stateMutability": "view",
      "type": "function"
    },
    {
      "inputs": [
        {
          "internalType": "address",
          "name": "",
          "type": "address"
        }
      ],
      "name": "lastCheckedInAt",
      "outputs": [
        {
          "internalType": "uint256",
          "name": "",
          "type": "uint256"
        }
      ],
      "stateMutability": "view",
      "type": "function"
    }
  ],
  "bytecode": "0x6080604052606444426200001491906200017c565b620000209190620001e6565b600181905550620000716040518060400160405280601b81526020017f436865636b2d696e20636f6e7472616374206c61756e636865642100000000008152506200007760201b620005711760201c565b620002dc565b62000117816040516024016200008e9190620002b8565b6040516020818303038152906040527f41304fac000000000000000000000000000000000000000000000000000000007bffffffffffffffffffffffffffffffffffffffffffffffffffffffff19166020820180517bffffffffffffffffffffffffffffffffffffffffffffffffffffffff83818316178352505050506200011a60201b60201c565b50565b60008151905060006a636f6e736f6c652e6c6f679050602083016000808483855afa5050505050565b6000819050919050565b7f4e487b7100000000000000000000000000000000000000000000000000000000600052601160045260246000fd5b6000620001898262000143565b9150620001968362000143565b9250828201905080821115620001b157620001b06200014d565b5b92915050565b7f4e487b7100000000000000000000000000000000000000000000000000000000600052601260045260246000fd5b6000620001f38262000143565b9150620002008362000143565b925082620002135762000212620001b7565b5b828206905092915050565b600081519050919050565b600082825260208201905092915050565b60005b838110156200025a5780820151818401526020810190506200023d565b60008484015250505050565b6000601f19601f8301169050919050565b600062000284826200021e565b62000290818562000229565b9350620002a28185602086016200023a565b620002ad8162000266565b840191505092915050565b60006020820190508181036000830152620002d4818462000277565b905092915050565b610d3d80620002ec6000396000f3fe608060405234801561001057600080fd5b506004361061004c5760003560e01c8063041f9f4314610051578063183ff08514610081578063cc5a7ce61461008b578063d9e7d977146100a9575b600080fd5b61006b600480360381019061006691906107ce565b6100c7565b6040516100789190610814565b60405180910390f35b6100896100df565b005b610093610467565b6040516100a09190610814565b60405180910390f35b6100b16104b2565b6040516100be919061092b565b60405180910390f35b60036020528060005260406000206000915090505481565b42610384600360003373ffffffffffffffffffffffffffffffffffffffff1673ffffffffffffffffffffffffffffffffffffffff1681526020019081526020016000205461012d919061097c565b1061016d576040517f08c379a000000000000000000000000000000000000000000000000000000000815260040161016490610a33565b60405180910390fd5b42600360003373ffffffffffffffffffffffffffffffffffffffff1673ffffffffffffffffffffffffffffffffffffffff1681526020019081526020016000208190555060016000808282546101c3919061097c565b92505081905550600260405180604001604052803373ffffffffffffffffffffffffffffffffffffffff16815260200142815250908060018154018082558091505060019003906000526020600020906002020160009091909190915060008201518160000160006101000a81548173ffffffffffffffffffffffffffffffffffffffff021916908373ffffffffffffffffffffffffffffffffffffffff1602179055506020820151816001015550506102b26040518060400160405280601281526020017f25732068617320636865636b65642d696e2100000000000000000000000000008152503361060a565b60326001541015610417576102fc6040518060400160405280600f81526020017f257320776f6e2061207072697a652100000000000000000000000000000000008152503361060a565b6000655af3107a400090504781111561034a576040517f08c379a000000000000000000000000000000000000000000000000000000000815260040161034190610ac5565b60405180910390fd5b60003373ffffffffffffffffffffffffffffffffffffffff168260405161037090610b16565b60006040518083038185875af1925050503d80600081146103ad576040519150601f19603f3d011682016040523d82523d6000602084013e6103b2565b606091505b50509050806103f6576040517f08c379a00000000000000000000000000000000000000000000000000000000081526004016103ed90610b77565b60405180910390fd5b60644442610404919061097c565b61040e9190610bc6565b60018190555050505b3373ffffffffffffffffffffffffffffffffffffffff167f7fd1041639d41b2a771c5c46f7d13f60b76913ea4af6357c898aa7fe10b626b74260405161045d9190610814565b60405180910390a2565b60006104aa6040518060400160405280601b81526020017f5765206861766520256420746f74616c20636865636b2d696e732100000000008152506000546106a6565b600054905090565b60606002805480602002602001604051908101604052809291908181526020016000905b8282101561056857838290600052602060002090600202016040518060400160405290816000820160009054906101000a900473ffffffffffffffffffffffffffffffffffffffff1673ffffffffffffffffffffffffffffffffffffffff1673ffffffffffffffffffffffffffffffffffffffff168152602001600182015481525050815260200190600101906104d6565b50505050905090565b610607816040516024016105859190610c76565b6040516020818303038152906040527f41304fac000000000000000000000000000000000000000000000000000000007bffffffffffffffffffffffffffffffffffffffffffffffffffffffff19166020820180517bffffffffffffffffffffffffffffffffffffffffffffffffffffffff8381831617835250505050610742565b50565b6106a28282604051602401610620929190610ca7565b6040516020818303038152906040527f319af333000000000000000000000000000000000000000000000000000000007bffffffffffffffffffffffffffffffffffffffffffffffffffffffff19166020820180517bffffffffffffffffffffffffffffffffffffffffffffffffffffffff8381831617835250505050610742565b5050565b61073e82826040516024016106bc929190610cd7565b6040516020818303038152906040527fb60e72cc000000000000000000000000000000000000000000000000000000007bffffffffffffffffffffffffffffffffffffffffffffffffffffffff19166020820180517bffffffffffffffffffffffffffffffffffffffffffffffffffffffff8381831617835250505050610742565b5050565b60008151905060006a636f6e736f6c652e6c6f679050602083016000808483855afa5050505050565b600080fd5b600073ffffffffffffffffffffffffffffffffffffffff82169050919050565b600061079b82610770565b9050919050565b6107ab81610790565b81146107b657600080fd5b50565b6000813590506107c8816107a2565b92915050565b6000602082840312156107e4576107e361076b565b5b60006107f2848285016107b9565b91505092915050565b6000819050919050565b61080e816107fb565b82525050565b60006020820190506108296000830184610805565b92915050565b600081519050919050565b600082825260208201905092915050565b6000819050602082019050919050565b61086481610790565b82525050565b610873816107fb565b82525050565b60408201600082015161088f600085018261085b565b5060208201516108a2602085018261086a565b50505050565b60006108b48383610879565b60408301905092915050565b6000602082019050919050565b60006108d88261082f565b6108e2818561083a565b93506108ed8361084b565b8060005b8381101561091e57815161090588826108a8565b9750610910836108c0565b9250506001810190506108f1565b5085935050505092915050565b6000602082019050818103600083015261094581846108cd565b905092915050565b7f4e487b7100000000000000000000000000000000000000000000000000000000600052601160045260246000fd5b6000610987826107fb565b9150610992836107fb565b92508282019050808211156109aa576109a961094d565b5b92915050565b600082825260208201905092915050565b7f506c65617365207761697420666f72203135206d696e75746573206265666f7260008201527f6520636865636b696e6720696e20616761696e21000000000000000000000000602082015250565b6000610a1d6034836109b0565b9150610a28826109c1565b604082019050919050565b60006020820190508181036000830152610a4c81610a10565b9050919050565b7f596f752063616e2774207769746864726177206d6f72652066756e647320746860008201527f616e2074686520636f6e74726163742068617321000000000000000000000000602082015250565b6000610aaf6034836109b0565b9150610aba82610a53565b604082019050919050565b60006020820190508181036000830152610ade81610aa2565b9050919050565b600081905092915050565b50565b6000610b00600083610ae5565b9150610b0b82610af0565b600082019050919050565b6000610b2182610af3565b9150819050919050565b7f4661696c656420746f2073656e64207072697a652e0000000000000000000000600082015250565b6000610b616015836109b0565b9150610b6c82610b2b565b602082019050919050565b60006020820190508181036000830152610b9081610b54565b9050919050565b7f4e487b7100000000000000000000000000000000000000000000000000000000600052601260045260246000fd5b6000610bd1826107fb565b9150610bdc836107fb565b925082610bec57610beb610b97565b5b828206905092915050565b600081519050919050565b60005b83811015610c20578082015181840152602081019050610c05565b60008484015250505050565b6000601f19601f8301169050919050565b6000610c4882610bf7565b610c5281856109b0565b9350610c62818560208601610c02565b610c6b81610c2c565b840191505092915050565b60006020820190508181036000830152610c908184610c3d565b905092915050565b610ca181610790565b82525050565b60006040820190508181036000830152610cc18185610c3d565b9050610cd06020830184610c98565b9392505050565b60006040820190508181036000830152610cf18185610c3d565b9050610d006020830184610805565b939250505056fea264697066735822122039e351b6a5b81f60adfc2bf9bc301f19bef63862aff4465ad2ba2a57202335cd64736f6c63430008110033",
  "linkReferences": {},
  "deployedLinkReferences": {}
}